:040000008CEF00F091
:10000800F2B46FEF00F09EB088EF00F0F2B010EF9E
:1000180000F081CF05F0110081CF01F001A922EC99
:1000280000F001AB31EC00F001AD47EC00F001AF9E
:100038005DEC00F001C005F0F2901100F29005A906
:100048001100067101C005F006A12CEF00F01200A6
:10005800030E8B6EDCEC00F01200F29005AB110081
:1000680006B139EF00F040EF00F0090E025DD8A4A8
:10007800022B01C005F01200080E035DD8A4032B63
:1000880001C005F01200F29005AD110006B14FEF66
:1000980000F056EF00F0010E025DD8A4020701C07F
:1000A80005F01200020E035DD8A4030701C005F095
:1000B8001200F29005AF110006B165EF00F06AEF8B
:1000C80000F0060E026F01C005F01200040E036F67
:1000D80001C005F01200F294D59E006B06B183EFC3
:1000E80000F004C0E8FF035DD8B4046BD8B8046B13
:1000F800042B010E006F010E045DD8B4008300C00C
:100108008BFFDCEC00F011009E90CD908B6A110003
:10011800060E026F040E036F046B042B926A936839
:10012800946A956A896A8B6A9D80F26AF286F28A75
:10013800F28CF28E066B067181CF05F0DCEC00F0D4
:10014800A7EC00F0FDD7B7EC00F09AEC01F0BEEC9C
:1001580000F09AEC01F0C7EC00F09AEC01F0D0EC5A
:1001680000F09AEC01F0010E896EE86A06B1730E90
:100178008C6E1200020E896E8C6AE86A06A14BEC3E
:1001880001F08C6E1200040E896E8C6A8984E86A0C
:1001980006A1400E8C6E1200080E896E8C6AE86A01
:1001A80006A14FEC01F006B147EC01F08C6E12008D
:1001B800EAEC00F0E5EC00F0830ED56EC90ECD6ECA
:1001C8001200CE6A3C0ECF6EB00ECE6ED66AE86ACA
:1001D800EEEF00F0010E025DD8A4F8EF00F00B0E70
:1001E800D76EDC0ED66E1200020E025DD8A402EFA6
:1001F80001F0240ED76E460ED66E1200030E025D75
:10020800D8A40CEF01F03C0ED76EB00ED66E1200DB
:10021800040E025DD8A416EF01F0550ED76E1A0E23
:10022800D66E1200050E025DD8A420EF01F06D0E07
:10023800D76E840ED66E1200060E025DD8A42AEF81
:1002480001F0850ED76EEE0ED66E1200070E025D17
:10025800D8A434EF01F09E0ED76E580ED66E120059
:10026800080E025DD8A43EEF01F0B60ED76EC20E9E
:10027800D66E1200090E025DD8A41200CF0ED76EFA
:100288002C0ED66E120002C009F053EF01F004C024
:1002980009F053EF01F003C009F053EF01F055EFF7
:1002A80001F0E86A095DD8A45CEF01F03F0E120086
:1002B800010E095DD8A463EF01F0060E1200020ECC
:1002C800095DD8A46AEF01F05B0E1200030E095D08
:1002D800D8A471EF01F04F0E1200040E095DD8A4E6
:1002E80078EF01F0660E1200050E095DD8A47FEFC5
:1002F80001F06D0E1200060E095DD8A486EF01F01C
:100308007D0E1200070E095DD8A48DEF01F0070ECF
:100318001200080E095DD8A494EF01F07F0E1200B8
:10032800090E095DD8A412006F0E12000869030EA9
:0E033800076F00000807FDE10707FBE1120058
:020000040030CA
:0300010006181EC0
:020005008181F7
:060008000FC00FE00F40E5
:00000001FF
