:10000000806A926A9368016B0269056B052B096B24
:10001000070E896E1CEC00F0E86A896A016B0269C0
:10002000080E066F06C003F081CF07F028EC00F041
:1000300061EC00F016EF00F00269016B050E036F32
:10004000013F20EF00F00207FBE10307F9E1120096
:1000500081CF08F008A13FEC00F008A345EC00F0C8
:1000600008A548EC00F008A74CEC00F008A950ECFB
:1000700000F008C007F009B128EF00F0120007B146
:10008000097107B154EC00F0120007B305731200B8
:10009000080E07B5066F1200020E07B7065F1200C2
:1000A000020E07B90627120009B159EF00F05DEF03
:1000B00000F080CF0AF0808412000AC080FF809494
:1000C000120005C0E8FFE82A012701E2120002073A
:1000D000BE0E02656DEC00F01200046B026989CF60
:1000E000E8FFE82AE8B0042B032B06C0E8FF036111
:1000F0007EEF00F004C0E8FF896E1200030E896EE7
:04010000036B12007B
:04FFFC0000EF00F022
:020000040030CA
:0300010006181EC0
:020005008181F7
:060008000FC00FE00F40E5
:00000001FF
