:020000040000FA
:0400000007EF00F016
:10000800668289ED02F0C4EF03F0000E346E100E24
:10001800336E7EEC04F0010E3324496E000E34205A
:100028004A6E000E346E040E336E7EEC04F0010E40
:1000380033244B6E000E34204C6E3550495C3650DC
:100048004A58D8B02AEF00F02CEF00F034EF00F057
:100058004950355C516E4A503658526E3AEF00F0AE
:100068003550495C516E36504A58526E37504B5C89
:1000780038504C58D8B043EF00F045EF00F04DEF42
:1000880000F04B50375C536E4C503858546E53EF59
:1000980000F037504B5C536E38504C58546E5250E9
:1000A80007E1030E515CD8B05CEF00F05EEF00F0A2
:1000B8006BEF00F0545007E1030E535CD8B067EFC4
:1000C80000F069EF00F06BEF00F009EF00F051501D
:1000D800535C52505458D8B074EF00F076EF00F0EB
:1000E8007CEF00F051C047F052C048F080EF00F0BC
:1000F80053C047F054C048F035C04DF036C04EF0FC
:100108003550495C36504A58D8B08DEF00F08FEF23
:1001180000F0BEEF00F0000E3C6E000E3B6EB1EF3B
:1001280000F0FF0E4D244D6EFF0E4E204E6E000E59
:10013800396E010E3A6ED8903B34D96E3C34DA6E83
:10014800D890D936DA363950D9263A50DA224DC005
:10015800DEFF4EC0DDFF3B4A3C2A51503B5C52500B
:100168003C58D8A0BAEF00F0BCEF00F095EF00F0D3
:10017800EBEF00F0000E3E6E000E3D6EE0EF00F07B
:10018800010E4D244D6E000E4E204E6E000E396E3F
:10019800010E3A6ED8903D34D96E3E34DA6ED8905E
:1001A800D936DA363950D9263A50DA224DC0DEFF30
:1001B8004EC0DDFF3D4A3E2A51503D5C52503E58EC
:1001C800D8A0E9EF00F0EBEF00F0C4EF00F051C069
:1001D8003FF052C040F007EF01F0000E396E010EFB
:1001E8003A6ED8903F34D96E4034DA6ED890D9360A
:1001F800DA363950D9263A50DA224DC0DEFF4EC0E1
:10020800DDFF3F4A402A47503F5C48504058D8A03D
:1002180010EF01F012EF01F0F1EF00F037C04FF0EE
:1002280038C050F037504B5C38504C58D8B01FEF9E
:1002380001F021EF01F054EF01F0000E426E000EC4
:10024800416E47EF01F0FF0E4F244F6EFF0E502016
:10025800506E000E396E010E3A6E020E3926000EEF
:100268003A22D8904134D96E4234DA6ED890D936D1
:10027800DA363950D9263A50DA224FC0DEFF50C05C
:10028800DDFF414A422A5350415C54504258D8A09D
:1002980050EF01F052EF01F027EF01F085EF01F088
:1002A800000E446E000E436E7AEF01F0010E4F24EB
:1002B8004F6E000E5020506E000E396E010E3A6ED1
:1002C800020E3926000E3A22D8904334D96E4434AF
:1002D800DA6ED890D936DA363950D9263A50DA2239
:1002E8004FC0DEFF50C0DDFF434A442A5350435CF1
:1002F80054504458D8A083EF01F085EF01F05AEF2D
:1003080001F053C045F054C046F0A5EF01F0000ECF
:10031800396E010E3A6E020E3926000E3A22D89036
:100328004534D96E4634DA6ED890D936DA36395033
:10033800D9263A50DA224FC0DEFF50C0DDFF454AC9
:10034800462A4750455C48504658D8A0AEEF01F0C1
:10035800B0EF01F08BEF01F047C035F048C036F040
:10036800120010EC03F074EC04F093809382F2888E
:10037800F292F28EF28CF086F09004C0ECF002500B
:1003880053EC03F006500710D8A4CDEF01F0CFEFDF
:1003980001F0D6EF01F0000E0001F16F000EF06FD2
:1003A800EFEF01F008500910D8A4DDEF01F0DFEFFE
:1003B80001F0E6EF01F0000E0001F36F010EF26F9D
:1003C800EBEF01F0000E0001F36F020EF26FF2C0C6
:1003D800F0F0F3C0F1F0F05115EC04F00DC0ECF0C2
:1003E8000B5053EC03F00F501010D8A4FEEF01F09F
:1003F80000EF02F007EF02F0000E0001F56F000EAB
:10040800F46F20EF02F011501210D8A40EEF02F092
:1004180010EF02F017EF02F0000E0001F76F010E67
:10042800F66F1CEF02F0000E0001F76F020EF66F78
:10043800F6C0F4F0F7C0F5F0F45115EC04F016C06E
:10044800ECF0145053EC03F018501910D8A42FEF07
:1004580002F031EF02F038EF02F0000E0001F96F00
:10046800030EF86F51EF02F01A501B10D8A43FEF9B
:1004780002F041EF02F048EF02F0000E0001FB6FBE
:10048800040EFA6F4DEF02F0000E0001FB6F050E2F
:10049800FA6FFAC0F8F0FBC0F9F0F85115EC04F067
:1004A80004C0ECF0025053EC03F021502210D8A401
:1004B80060EF02F062EF02F069EF02F0000E000157
:1004C800FD6F030EFC6F82EF02F023502410D8A4B6
:1004D80070EF02F072EF02F079EF02F0000E000107
:1004E800FF6F040EFE6F7EEF02F0000E0001FF6F3B
:1004F800050EFE6FFEC0FCF0FFC0FDF0FC5115ECD0
:1005080004F0C1EF01F007EF00F00600D9CF57F073
:10051800DACF58F0F3CF59F0F4CF5AF0F2A297EFB0
:1005280002F099EF02F0FEEF02F06304D8A49FEF07
:1005380002F0A1EF02F0FBEF02F0000E5E6E000E7B
:100548005D6E5DC033F05EC034F0000E366E090E8D
:10055800356E61EC04F0020E3324D96E000E34209F
:10056800DA6E2950DE1807E12A50DE18D8A4BFEF4A
:1005780002F0C1EF02F0EBEF02F05DC033F05EC0B5
:1005880034F0000E366E090E356E61EC04F0040E80
:100598003324D96E000E3420DA6E2B50DE1807E1B2
:1005A8002C50DE18D8A4DBEF02F0DDEF02F0EBEF01
:1005B80002F0000E636E29C035F02AC036F02BC059
:1005C80037F02CC038F009EC00F0FBEF02F05D4A80
:1005D8005E2A5EBEF9EF02F05E5009E1040E5D5C32
:1005E800D8A0F9EF02F0FBEF02F0A5EF02F0F292CB
:1005F80006EF03F0F0A003EF03F005EF03F006EFBA
:1006080003F0F0905AC0F4FF59C0F3FF58C0DAFF66
:1006180057C0D9FF669211002FEC04F0E20E0001DA
:10062800EC6F000EED6F000EF5EC03F0D20E00013A
:10063800EC6F000EED6F010EF5EC03F0C20E000139
:10064800EC6F000EED6F020EF5EC03F0DA0E000110
:10065800EC6F000EED6F030EF5EC03F0CA0E00010F
:10066800EC6F000EED6F040EF5EC03F0BA0E00010E
:10067800EC6F000EED6F050EF5EC03F0B20E000105
:10068800EC6F000EED6F060EF5EC03F0AA0E0001FC
:10069800EC6F000EED6F070EF5EC03F01200000191
:1006A800ED6F0001EC05D8A45CEF03F05EEF03F0FA
:1006B80065EF03F0ED050F0B800F48EC04F08AEFAF
:1006C80003F0020EEC19D8A46CEF03F06EEF03F000
:1006D80075EF03F0ED050F0BC00F48EC04F08AEF3F
:1006E80003F0030EEC19D8A47CEF03F07EEF03F0BF
:1006F80085EF03F0ED050F0B900F48EC04F08AEF3F
:1007080003F0ED050F0BD00F48EC04F0EDC065F0D9
:10071800ECC064F01200420E00030000000000422A
:100728000E0002000000000041030003000000006A
:10073800004103000200010000003F065B4F666DA8
:100748000E1111110E0000000E1F1F1F0E000000D9
:100758001F150A040E1F0A1F1F150A0404040A1F86
:1007680011150A040E1F0A1F11150A0404040A1F92
:1007780011150A040E1F0A0A11150A0404040A0AAC
:100788001E0EF66E070EF76E000EF86E00EE80F085
:1007980010EE6AF00900F5CFEEFFE550E150FAE1FE
:1007A800F40EF66E080EF76E000EF86E00EE5FF0AF
:1007B80010EE07F00900F5CFEEFFE550E150FAE141
:1007C80001EE00F03C0EEE6AE806FDE100EE01F0F5
:1007D800320EEE6AE806FDE1669066920001B5EF1A
:1007E80001F00001EE6F0001EE51080DF350400FCB
:1007F80048EC04F0000E0001EF6FEF51EC25D96EC4
:10080800000EED21DA6EDF5015EC04F00001EF2B3D
:10081800070EEF6512EF04F014EF04F001EF04F097
:1008280012000001EB6F84928484EBC083FF848202
:10083800070E0001EA6F7D0EE82EFED7EA2FFCD7DF
:100848008492070E0001EA6F7D0EE82EFED7EA2F8C
:10085800FCD78494120096929694000E956E84921A
:100868008494380E48EC04F0080E48EC04F00C0EA2
:1008780048EC04F0060E48EC04F0010E48EC04F0D5
:10088800800E48EC04F012000001EB6F849284940F
:10089800EBC083FF8482070E0001EA6F7D0EE82E0D
:1008A800FED7EA2FFCD78492070E0001EA6F7D0E6F
:1008B800E82EFED7EA2FFCD7120033503502F3CFCB
:1008C80037F0F4CF38F033503602F350382634502E
:1008D8003502F350382637C033F038C034F01200F0
:1008E800000E956E92969298929A12000900020054
:0308F800010101FA
:0208FC001200E8
:020000040020DA
:08000000FFFFFFFFFFFFFFFF00
:020000040030CA
:0E000000FF081F1EFF8381FF0FC00FE00F409F
:00000001FF
